{
  "transactions": [
    {
      "hash": "0x534965b742c3fe24cb6460347c89186661cf66fb007cfe5cb8b82b30b74b3f7a",
      "transactionType": "CALL",
      "contractName": null,
      "contractAddress": "0x07f6d65f9454ea2dff99bf8c2c1de918fcd27416",
      "function": "safeMint(address)",
      "arguments": [
        "0xA98556A4deeB07f21f8a66093989078eF86faa30"
      ],
      "transaction": {
        "from": "0xa98556a4deeb07f21f8a66093989078ef86faa30",
        "to": "0x07f6d65f9454ea2dff99bf8c2c1de918fcd27416",
        "gas": "0x1fa81",
        "value": "0x0",
        "input": "0x40d097c3000000000000000000000000a98556a4deeb07f21f8a66093989078ef86faa30",
        "nonce": "0x1",
        "chainId": "0x127"
      },
      "additionalContracts": [],
      "isFixedGasLimit": false
    }
  ],
  "receipts": [
    {
      "status": "0x1",
      "cumulativeGasUsed": "0x19534",
      "logs": [
        {
          "address": "0x07f6d65f9454ea2dff99bf8c2c1de918fcd27416",
          "topics": [
            "0xddf252ad1be2c89b69c2b068fc378daa952ba7f163c4a11628f55a4df523b3ef",
            "0x0000000000000000000000000000000000000000000000000000000000000000",
            "0x000000000000000000000000a98556a4deeb07f21f8a66093989078ef86faa30",
            "0x0000000000000000000000000000000000000000000000000000000000000000"
          ],
          "data": "0x",
          "blockHash": "0x34ec837207ce6ed3cd26fb35de96282b8fecf17de2c1c3e3afa7241215d0c519",
          "blockNumber": "0x50df40d",
          "transactionHash": "0x534965b742c3fe24cb6460347c89186661cf66fb007cfe5cb8b82b30b74b3f7a",
          "transactionIndex": "0x4",
          "logIndex": "0x0",
          "removed": false
        }
      ],
      "logsBloom": "0x00000000000000000000000000000000000000000000000000000000000000000000000000000000000000000000000000000000000000000000000000000000000000000000000000000008004000000000002000000000000000000000000000000000020000000000000000000800000000000000000000000010000000000000000000000400000000000000000000000000000000000000000000000000000000000000000000000000000000000000000000001000000000000000000000001003000000000000000000000000000000000000000000000000000020000000000000000000000000000000000000000000000000000000000000000000",
      "type": "0x2",
      "transactionHash": "0x534965b742c3fe24cb6460347c89186661cf66fb007cfe5cb8b82b30b74b3f7a",
      "transactionIndex": "0x4",
      "blockHash": "0x34ec837207ce6ed3cd26fb35de96282b8fecf17de2c1c3e3afa7241215d0c519",
      "blockNumber": "0x50df40d",
      "gasUsed": "0x19534",
      "effectiveGasPrice": "0x517da02c00",
      "from": "0xa98556a4deeb07f21f8a66093989078ef86faa30",
      "to": "0x07f6d65f9454ea2dff99bf8c2c1de918fcd27416",
      "contractAddress": "0x07f6d65f9454ea2dff99bf8c2c1de918fcd27416",
      "root": "0x56e81f171bcc55a6ff8345e692c0f86e5b48e01b996cadc001622fb5e363b421"
    }
  ],
  "libraries": [],
  "pending": [],
  "returns": {},
  "timestamp": 1758310874,
  "chain": 295,
  "commit": "649e59f"
}